:1000000005308A00E72D0000FF00030E8301A100E8
:100010000A08A0008A010408A2007708A300780853
:10002000A4007908A5007A08A600831383120B1E8A
:100030001B288B1832288C308400801E21288C1AB3
:100040003528220884002308F7002408F800250832
:10005000F9002608FA0020088A00210E8300FF0E0E
:100060007F0E09008A110A1238288A110A129E2866
:10007000973003178D0000308F0003130B08DD004D
:100080008B13831603178C170C14000000008312C7
:100090000C087F39031987280313DE0003170D08A6
:1000A0000313DF0003170F080313E0005E080C1EA4
:1000B000572899005F0803178D0003136008031782
:1000C0008F0083168C170C140000000083120C0D97
:1000D0000E0D7F39031987280313DE0003170D085F
:1000E0000313DF0003170F080313E0005E080C1E64
:1000F000772899005F0803178D0003136008031722
:100100008F008D0A03198F0A031341280317031365
:10011000DD1B8B170D300C1E8B2899000A300C1E2E
:100120008F289900A8018B108A110A122128653C9A
:10013000F42F6937F4327239753874008C1E9E289A
:100140001A08A70027084C3A0319C228203A0319B5
:10015000C9281B3A0319CF28203A0319D528163A83
:100160000319DC28203A0319E328083A0319E9287F
:10017000203A0319EB280A3A0319EE28203A03190A
:10018000FA28042983160810831208140130A900E4
:1001900004298316081083120810A9010429831664
:1001A000881083128810AA010429831688108312EC
:1001B00088140130AA000429831608118312081537
:1001C0000130AB0004298316081183120811AB011A
:1001D0000429A80104290130A80004292C08023CA4
:1001E000031904296F30AE00AC0183168811831205
:1001F00088110429AC08031904296330AE00AC014E
:1002000083168811831288158C128A110A122128EC
:10021000513084008313000803191C290130F800B1
:10022000F701F70B1129F80B10294A30F700F70BEB
:1002300017291A29800B0E2908008E30F700510863
:10024000F8005008F900FA01F808031D312979086F
:10025000F800F9010830F702F808031D3129F70109
:1002600039290310F81B3829F90DF80DF703312946
:10027000F813080050080319AA29D80054080319D4
:10028000AA29D80703184B297F30D802031CAA29B2
:100290000319AA294F298130D8070318AA29580819
:1002A000F700F801F901FA015108DC00DC175208E7
:1002B000DB005308DA001830D800D9015A1C78291D
:1002C0005708FA07031C6A29F90A031D6A29F80A64
:1002D0000319D9175608F907031C7129F80A0319DD
:1002E000D9175508D200D2175208F8070318D917A2
:1002F000D90DF80CF90CFA0CDC0CDB0CDA0C031041
:10030000D80B5D290130F7070318AA29F81B8F299C
:10031000DC0DFA0DF90DF80DF7030319AA29DC1FFE
:10032000A029FA0A031DA029F90A031DA029F80A29
:10033000031DA029F80CF90CFA0CF70A0319AA29D5
:100340005108D9005508D906D91FA829F817AE2990
:10035000F813AE29F701F801F901FA010800C50107
:10036000C401430DF700F70DF70DF830F7051F082E
:10037000C73977049F001430D10008211F151F19B9
:10038000BF2983161E088312C4001E08C500450835
:10039000D1004408D0001D217A08D3007908D2008A
:1003A0007808D1007708D0001A30D7005130D60035
:1003B0007A30D5007D30D4003A210800470803196F
:1003C000A32AD3004B080319A32AD302031CED2947
:1003D0007F30D3070318A32AF3298130D302031CEB
:1003E000A32A0319A32A5308F700F801F901FA0117
:1003F000D2014808D100D1174908D0004A08CF00DF
:100400001930D3004E08CF020318162A0130D0024B
:100410000318162AD1020318162AD2020318162A24
:10042000D20AD10AD00A4E08CF07482A4D08D00276
:100430000318312A0130D1020318312AD2020318DD
:10044000312AD20AD10A4D08D0074E08CF07031C23
:10045000482AD00A031D482AD10A031D482AD20A75
:10046000482A4C088038D1020318472A0130D202AA
:100470000318472AD20A4C088038D1074D08D00704
:10048000031C252AD10A031D252AD20A252A7A14FB
:10049000D30B4B2A562A0310CF0DD00DD10DD20D00
:1004A0000310FA0DF90DF80DD40D022A541C5E2A22
:1004B0000310F80CF90CFA0CD40C612AF703031999
:1004C000A32AD41B8A2A0310CF0DD00DD10DD20D33
:1004D0004E08CF020318762A0130D0020318762A7C
:1004E000D1020318762AD202031C992A4D08D002A1
:1004F0000318812A0130D1020318812AD202031C79
:10050000992A4C088038D10203188A2A0130D20275
:10051000031C992AFA0A031D992AF90A031D992A2C
:10052000F80A031D992AF70A0319A32AF80CF90CF3
:10053000FA0C4808D3004C08D306D31FA12AF81799
:10054000A72AF813A72AF701F801F901FA01080010
:100550004608CA004508C9004408C8004308C70047
:100560001A30CE005130CD007A30CC007D30CB0037
:10057000DE217A08C6007908C5007808C40077082B
:10058000C3004608CA004508C9004408C80043081B
:10059000C700CE01CD01CC018930CB00DE217A0825
:1005A000CA007908C9007808C8007708C7007A0827
:1005B000D3007908D2007808D1007708D000D7019D
:1005C0004030D6001C30D5008B30D4003A217A0858
:1005D000C6007908C5007808C4007708C30046083B
:1005E000CA004508C9004408C8004308C700CE0136
:1005F000CD012030CC008230CB00DE218A110A12DE
:100600005B2E5108D8005508D806D81F0C2B0311B3
:100610000310D11B03143F2B5108D8005408D900F4
:100620005008D90203191A2BD81F3F2B0308013A8F
:1006300083003F2B5508D9005108D9020319262BF6
:10064000D81F3F2B0308013A83003F2B5608D900DF
:100650005208D9020319322BD81F3F2B0308013A45
:1006600083003F2B5708D9005308D90203193E2BAA
:10067000D81F3F2B0308013A83003F2B03100800CB
:1006800050080739F700500CF800F80CF80C1F3030
:10069000F80578085107840083135218831700085F
:1006A000F800F70A542BF80CF70B532B8A110A1297
:1006B000D12B50080739F700500CF800F80CF80C53
:1006C0001F30F805780852078400831353188317E6
:1006D000F801F80AF70A6D2BF80DF70B6C2BD1080F
:1006E0000319752B78088004782BF80978088005A1
:1006F00008004808FA004708840083137A18831713
:10070000000BAB2BD1014908D0001D217A08D30082
:100710007908D2007808D1007708D0004D08D700BA
:100720004C08D6004B08D5004A08D4000123031C0E
:10073000AB2B4708840083134818831780014E08A9
:100740000C1EA02B99000430D000FA30D1000821F3
:10075000D00BA52B112C4808FA00470884008313FE
:100760007A1883178008031DE42BD1014908D000B3
:100770001D217A08D3007908D2007808D1007708C3
:10078000D0004D08D7004C08D6004B08D5004A08C9
:10079000D4000123031CE42B4F08D000D201D10167
:1007A000402B0030781C0130F7004F08D00077084C
:1007B000D100D301D20159234F08D000D101D30178
:1007C0008030D2005923112CD1014908D0001D21BD
:1007D0004D08D3004C08D2004B08D1004A08D00085
:1007E0007A08D7007908D6007808D5007708D400B1
:1007F00001230318FD2B031D112C4F08D000D1013C
:10080000D301D20159234F08D000D101D301803048
:10081000D2005923470884008313481883170130F6
:1008200080000800280B272CC8012F30C7008B3010
:10083000C9004608CD004508CC004408CB00430859
:10084000CA005930CE004430CF0079232B2C8316B8
:100850000812831208128A110A12902E320B312CC0
:10086000572CD1014308D0001D217A08D300790804
:10087000D2007808D1007708D0004708D700460892
:10088000D6004508D5004408D4000123031C572C8A
:10089000300B572C4D300C1E4B2C9900B0010430FE
:1008A000C800FA30D1000821C80B512C9A2C320B09
:1008B0005A2C7A2CD1014308D0001D217A08D3008C
:1008C0007908D2007808D1007708D0004708D7000F
:1008D0004608D6004508D5004408D4000123031C6F
:1008E0007A2C300B742C7A2C831688138030831268
:1008F00088069A2C320B7D2C942CD1014308D00011
:100900001D214708D3004608D2004508D1004408FD
:10091000D0007A08D7007908D6007808D500770883
:10092000D4000123031C9A2C0130B00083168813D5
:10093000831288138A110A129B2E290BA32C83166B
:100940000810831208142A0BA92C8316881083120E
:1009500088142B0BAF2C83160811831208158A11EB
:100960000A129C2E8318B72C583084008313F70189
:10097000F801F901FA01D801D901DA01DB015708C0
:100980005604550454040319F52C2030DC000310E0
:10099000D00DD10DD20DD30DD80DD90DDA0DDB0D43
:1009A00057085B02031DDE2C56085A02031DDE2C7D
:1009B00055085902031DDE2C54085802031CEF2C65
:1009C0005408D8025508031C550FD9025608031CB9
:1009D000560FDA025708031C570FDB020314F70DFA
:1009E000F80DF90DFA0DDC0BC72C58088000840AAD
:1009F00059088000840A5A088000840A5B08800035
:100A000008000408C8004708CA000319202D46083A
:100A1000D3004508D2004408D1004308D000D701D4
:100A2000D6012030D5008230D4003A217A08C600A1
:100A30007908C5007808C4007708C300CA0B072DE1
:100A40004608D3004508D2004408D1004308D0002E
:100A50005008B63CD000FA015108D400D117031059
:100A6000D10CD20CD30CFA0CF90CF80CF70CD00BFF
:100A70002F2DD41F462DF709F809F909FA09F70AAD
:100A80000319F80A0319F90A0319FA0A7A08C600C1
:100A90007908C5007808C4007708C300C61F5D2D1B
:100AA000C803C816C309C409C509C609C30A03197E
:100AB000C40A0319C50A0319C60A3B30CF009A308D
:100AC000CE00CA30CD00CC010A30CA004708031955
:100AD000C80A83144330840083134608D3004508B2
:100AE000D2004408D1004308D0004F08D7004E0878
:100AF000D6004D08D5004C08D400B2247808F70879
:100B0000031D952D470A4A020319952D480803191C
:100B1000972D0F394A0203198F2D0318CB2DC81BAF
:100B2000CB2D481B972D2030C62D2030C805C81E60
:100B3000A62DC8124708031DC8037708C8002D302A
:100B40000C1EA02D99004808F700C80147084A026A
:100B5000031DB52D7708C8002E300C1EAD2D990051
:100B60004808F7002030C80500303030C81EC62DB8
:100B7000C8124708031DC8037708C8002D300C1E93
:100B8000BF2D99004808F700C8013030F7077708F3
:100B90000C1EC82D990083104F08D3004E08D200B8
:100BA0004D08D1004C08D000D701D601D5010A303C
:100BB000D400B2247A08CF007908CE007808CD009E
:100BC0007708CC00CA0B692D8A110A12A92E193098
:100BD00083169900A6309800903083129800A801DF
:100BE000A901AA01AB01AC01AD010130AF00B00019
:100BF000B100B20083161F149F141F159F110730F8
:100C00009C0083131F3083050F3085000130860060
:100C100086018312860100308316880088018312C2
:100C2000880183161F1383121F139F1783169F17A4
:100C300083121F1483161F109F101F119F1101177D
:100C400083120B1683168C16C03083128B0401306E
:100C5000C300AF217A08B6007908B5007808B4005F
:100C60007708B300C301AF217A08BA007908B90048
:100C70007808B8007708B7000230C300AF217A08BF
:100C8000BE007908BD007808BC007708BB000330BF
:100C9000C300AF217A08C2007908C1007808C000FB
:100CA0007708BF003A08C6003908C5003808C400F4
:100CB0003708C300A82A7A08BA007908B90078086A
:100CC000B8007708B700C8013230C700FA30C90051
:100CD0003E08CD003D08CC003C08CB003B08CA00D4
:100CE0005A30CE004530CF007923C8013130C700DB
:100CF000C830C9004208CD004108CC004008CB00F4
:100D00003F08CA005830CE004630CF00792336085D
:100D1000C6003508C5003408C4003308C300122CCF
:100D20003230C3003A08C7003908C6003808C50089
:100D30003708C4002E2C9D2C893084003A08C60048
:100D40003908C5003808C4003708C3000230C7009E
:100D5000012D0430C300FA30D1000821C30BAB2EA3
:040D6000272E6300D7
:02400E003A3F37
:00000001FF
;PIC16F877A
;CRC=2404  CREATED="02-Jan-20 09:41"
